:100000000C9465000C948D000C948D000C948D0064
:100010000C948D000C948D000C948D000C948D002C
:100020000C948D000C948D000C948D000C948D001C
:100030000C948D000C948D000C948D000C948D000C
:100040000C9418060C948D000C9449070C94970797
:100050000C948D000C948D000C948D000C948D00EC
:100060000C9469040C948D0000000000240027000B
:100070002A0000000000250028002B0000000000DE
:1000800023002600290004040404040404040202DA
:100090000202020203030303030301020408102007
:1000A0004080010204081020010204081020000012
:1000B0000007000201000003040600000000000029
:1000C000000010015F030309090111241FBECFEFD7
:1000D000D8E0DEBFCDBF11E0A0E0B1E0EEE5F2E296
:1000E00002C005900D92A23AB107D9F713E0A2EA37
:1000F000B1E001C01D92AD32B107E1F710E0C8ECEC
:10010000D0E004C02297FE010E941611C23CD10724
:10011000C9F70E9459090C9422110C9400001F93F6
:10012000FC0199278827BC01E89411911032E9F36A
:10013000193010F01E30C8F31B3251F01D3249F453
:10014000689406C00E94CF00610F711D811D911D32
:10015000119110531A30B0F33EF49095809570953C
:1001600061957F4F8F4F9F4F1F910895FB01DC01D9
:1001700002C001900D9241505040D8F70895FB0104
:10018000DC018D91019080190110D9F3990B08952C
:10019000FB01DC0101900D920020E1F70895592F39
:1001A000482F372F262F660F771F881F991F660F3E
:1001B000771F881F991F620F731F841F951F660F7B
:1001C000771F881F991F089581309105A1F46F5FF3
:1001D0007F4FF1F487EA91E060E071E00E94030C48
:1001E0008EEA91E064E071E00E94030C85EB91E0FF
:1001F0000E94E1020895892B59F46F5F7F4F41F40B
:100200008EEA91E00E94A00C87EA91E00E94A00C87
:10021000089580E090E06FEF7FEF0E94E400089582
:1002200081E090E06FEF7FEF0E94E4000895EF928D
:10023000FF920F931F93DF93CF93CDB7DEB72E9727
:100240000FB6F894DEBF0FBECDBF87E093E00E94EB
:100250005908181619066CF58EEA91E064E071E011
:100260000E941D0C0FC087E093E00E948A08682F4F
:100270008EEA91E00E94BD0B6AE070E080E090E0C1
:100280000E94600687E093E00E945908181619063C
:1002900054F38091A201882361F087E093E065E048
:1002A00071E00E94A40A87E093E06EEA71E00E9488
:1002B000ED0A8E010F5F1F4FC8016EEA71E041E049
:1002C00050E00E947D0CC8010E94120B7093A401A3
:1002D0006093A301C8010E94A00C8E01085F1F4F0C
:1002E000C8016EEA71E040E050E021E030E00E9499
:1002F000360C8EEA91E0B8010E94890CC8010E9478
:10030000A00C8EEA91E00E94230B8091A201882329
:10031000E1F087E093E06CE071E00E94A40A609154
:10032000A3017091A40187E093E04AE050E00E94AD
:10033000720A87E093E065E171E00E94A40A87E019
:1003400093E06EEA71E00E94ED0A8EEA91E06DE1C1
:1003500071E00E94370B882379F08091A30190917E
:10036000A40190937A018093790187E093E06FE193
:1003700071E00E94A70AB0C08EEA91E061E271E0EC
:100380000E94370B882309F499C06091A3017091F2
:10039000A401882777FD8095982F0E94BC0F20E04C
:1003A00030E040EC5FE30E94701020E030EA4AEA5F
:1003B00054E40E94701020E030E04AE754E40E94C8
:1003C000210F7B018C0120E030E040E050E00E94F2
:1003D0006C1088234CF0C801B70120E030E040E009
:1003E0005FE30E94BD0E08C0C801B70120E030E005
:1003F00040E05FE30E94BC0E0E94890F97FF03C09C
:1004000060E070E042C0C801B70120E030E040E0A9
:1004100050E00E946C1088234CF0C801B70120E026
:1004200030E040E05FE30E94BD0E08C0C801B701A4
:1004300020E030E040E05FE30E94BC0E0E94890FA4
:1004400060507041804090401CF06FEF7FE01DC015
:10045000C801B70120E030E040E050E00E946C109D
:1004600088234CF0C801B70120E030E040E05FE3B2
:100470000E94BD0E08C0C801B70120E030E040E096
:100480005FE30E94BC0E0E94890F7093A6016093E7
:10049000A5018091A2018823F9F087E093E063E24F
:1004A00071E00E94A40A6091A5017091A60187E005
:1004B00093E04AE050E00E94850A0EC08EEA91E087
:1004C0006DE271E00E94370B882361F08091A201F8
:1004D00091E089278093A2018EEA91E064E071E0C7
:1004E0000E941D0C8091A201882301F187E093E016
:1004F0006FE271E00E94A40A6091790170917A0123
:1005000087E093E04AE050E00E94850A87E093E0AC
:100510006CE371E00E94A40A6091A5017091A601AC
:1005200087E093E04AE050E00E94850A6091A501CF
:100530007091A60185EB91E040E00E94E9022E96C1
:100540000FB6F894DEBF0FBECDBFCF91DF911F91E4
:100550000F91FF90EF9008950F931F93EAE7F0E05B
:1005600080818460808380818D7F808380818E7F85
:1005700080838CE08093B80085EB91E060E60E9478
:10058000E20207E013E0C80140E855E260E070E0F5
:100590000E94D207C80166E471E00E94A70AC80160
:1005A00065E571E00E94A40AC80167EA71E00E9453
:1005B000ED0AC80168E671E00E94A70A1F910F9139
:1005C00008950895FC0160838CEF91E00E94EE0392
:1005D00008950F931F93CF93DF93FC01EB01142F2A
:1005E0000091B8008CE08093B8008CEF91E06081BE
:1005F0000E942503112321F08CEF91E060E603C0F7
:100600008CEF91E068E50E94A703BE0194E0769527
:1006100067959A95E1F78CEF91E00E94A70384E03B
:10062000CC0FDD1F8A95E1F7D0708CEF91E06C2F35
:100630000E94A7038CEF91E00E94EA030093B800A8
:10064000DF91CF911F910F91089581E08093FB017D
:100650006093D8011092F9011092FA010895209147
:10066000D70130E08091D601281B3109C9010895D6
:100670004091D6018091D701481718F02FEF3FEF36
:100680000AC0E42FF0E0EA54FE4F8081282F30E0CA
:100690004F5F4093D601C9010895E091D601809142
:1006A000D701E81718F0EFEFFFEF06C0F0E0EA54CB
:1006B000FE4F8081E82FF0E0CF0108950895109259
:1006C000FF011092FE0188EE93E0A0E0B0E080937D
:1006D000000290930102A0930202B093030285E806
:1006E00091E09093FD018093FC010895CF92DF92F9
:1006F000EF92FF920F931F93CF93DF937C016B01D7
:100700008A018091FB018823A1F0C0E0D0E00DC0F8
:10071000D701ED91FC91D601AC0FBD1F0190F08186
:10072000E02DC7016C9109952196C017D10780F380
:1007300004C0CB01642F0E944E04C801DF91CF9109
:100740001F910F91FF90EF90DF90CF900895DF936E
:10075000CF930F92CDB7DEB7FC0169838091FB0187
:100760008823C9F08091FA01803238F081E090E06E
:100770009383828320E030E015C08091F901E82F57
:10078000F0E0E752FE4F998190838F5F8093F901EB
:100790008093FA0105C0CE01019661E00E944E04EB
:1007A00021E030E0C9010F90CF91DF9108950F93C0
:1007B000062F8091D80169ED71E04091FA0121E0A6
:1007C0000E94F9031092F9011092FA011092FB01B4
:1007D0000F91089561E00E94D70308951092D60109
:1007E0001092D7011092F9011092FA010E94FA05B5
:1007F00008950F931F93582F122F413210F081E06C
:100800004AC0809108028823E1F782E080930802C1
:1008100000930A028FEF809375021092300240938A
:100820003102A0E1B2E0FB0102C081918D938E2FD5
:10083000861B8417D0F31092090280910902550F8C
:10084000852B8093090280910B02813041F4109234
:100850000B02809109028093BB0085EC01C085EEFC
:100860008093BC00112321F0809108028230E1F3D3
:10087000809175028F3F11F480E00DC08091750268
:10088000803211F482E007C080917502803311F04C
:1008900084E001C083E01F910F910895482F6132D9
:1008A00010F081E0089580910802843011F082E018
:1008B000089560935302A2E3B2E0842F9C01F901F2
:1008C00002C081918D938E2F841B8617D0F380E018
:1008D00008951F920F920FB60F9211242F933F93FA
:1008E0004F935F936F937F938F939F93AF93BF9338
:1008F000EF93FF938091B90090E0887F90708036ED
:10090000910509F4F2C081369105CCF58832910544
:1009100009F47BC089329105B4F48031910509F462
:100920006FC0813191053CF4009709F447C10897E5
:1009300009F04FC165C08831910509F466C0809700
:1009400009F047C182C08034910509F4A4C0813404
:10095000910544F48033910509F482C0C89709F0E9
:1009600038C189C08035910509F489C08835910561
:1009700009F496C08834910509F02BC1AEC08839BE
:10098000910509F413C189399105ECF48837910573
:1009900009F4ABC0893791054CF48836910509F408
:1009A000A4C08037910509F014C19FC08838910513
:1009B00009F4FCC08039910509F49DC08038910587
:1009C00009F007C198C0803B910509F4C6C0813B7E
:1009D00091054CF4803A910509F49FC0883A91053D
:1009E00009F0F7C0BAC0803C910509F4E3C0883C27
:1009F000910509F4DFC0883B910509F0EAC0C2C047
:100A0000809109028093BB00CFC090913002809109
:100A10003102981768F490913002E92FF0E0E05F1E
:100A2000FD4F80818093BB009F5F90933002BCC0DC
:100A300080910A02882309F44BC085ED8093BC00A5
:100A40008091BC0084FDFCCFC2C080E2809375021F
:100A500085ED8093BC008091BC0084FDFCCFB7C0C5
:100A600080E38093750285ED8093BC008091BC008B
:100A700084FDFCCFACC088E3809375029BC080915D
:100A800030029091BB00E82FF0E0E05FFD4F9083D3
:100A90008F5F80933002909130028091310282C04A
:100AA000809130029091BB00E82FF0E0E05FFD4FB5
:100AB00090838F5F8093300280910A02882341F0F7
:100AC00085ED8093BC008091BC0084FDFCCF7FC08D
:100AD00081E080930B0284EA6EC085ED8093BC00B8
:100AE0008091BC0084FDFCCF72C083E0809308023B
:100AF0001092740259C080917402803208F056C07E
:100B0000809174029091BB00E82FF0E0EC5AFD4F09
:100B100090838F5F8093740247C08091740280320B
:100B200030F4E0917402F0E0EC5AFD4F108285ED54
:100B30008093BC008091BC0084FDFCCF1092080221
:100B400060917402E0910E02F0910F0284E592E050
:100B500070E00995109274022DC084E08093080221
:100B60001092520210925302E0910C02F0910D0289
:100B7000099580915302882329F481E080935302E0
:100B80001092320290915202E92FF0E0EE5CFD4F9C
:100B900080818093BB009F5F90935202909152029C
:100BA00080915302981710F485EC01C085E880937A
:100BB000BC000FC085EC8093BC0009C01092750288
:100BC00085ED8093BC008091BC0084FDFCCF109229
:100BD0000802FF91EF91BF91AF919F918F917F910B
:100BE0006F915F914F913F912F910F900FBE0F909A
:100BF0001F9018951092080281E080930A021092CB
:100C00000B0282E161E00E94F40683E161E00E9450
:100C1000F406E9EBF0E080818E7F808380818D7F18
:100C2000808388E48093B80085E48093BC000895B5
:100C30001F920F920FB60F9211242F933F938F9311
:100C40009F93AF93BF9380917A0290917B02A09182
:100C50007C02B0917D0230917E020196A11DB11DF2
:100C6000232F2D5F2D3720F02D570196A11DB11D8B
:100C700020937E0280937A0290937B02A0937C0261
:100C8000B0937D028091760290917702A0917802D4
:100C9000B09179020196A11DB11D809376029093C7
:100CA0007702A0937802B0937902BF91AF919F91A0
:100CB0008F913F912F910F900FBE0F901F9018951D
:100CC0009B01AC017FB7F8948091760290917702F6
:100CD000A0917802B091790266B5A89B05C06F3FDC
:100CE00019F00196A11DB11D7FBFBA2FA92F982F12
:100CF0008827860F911DA11DB11D62E0880F991FE5
:100D0000AA1FBB1F6A95D1F7BC012DC0FFB7F8948D
:100D10008091760290917702A0917802B091790249
:100D2000E6B5A89B05C0EF3F19F00196A11DB11DC6
:100D3000FFBFBA2FA92F982F88278E0F911DA11DB5
:100D4000B11DE2E0880F991FAA1FBB1FEA95D1F7DA
:100D5000861B970B885E9340C8F22150304040407C
:100D6000504068517C4F211531054105510571F600
:100D70000895789484B5826084BD84B5816084BD13
:100D800085B5826085BD85B5816085BDEEE6F0E004
:100D9000808181608083E1E8F0E010828081826060
:100DA0008083808181608083E0E8F0E080818160E1
:100DB0008083E1EBF0E0808184608083E0EBF0E011
:100DC000808181608083EAE7F0E0808184608083B5
:100DD000808182608083808181608083808180685F
:100DE00080831092C1000895482F50E0CA018255B7
:100DF0009F4FFC012491CA0186569F4FFC0194919C
:100E00004A575F4FFA013491332309F440C022233B
:100E100051F1233071F0243028F42130A1F0223038
:100E200011F514C02630B1F02730C1F02430D9F4C8
:100E300004C0809180008F7703C0809180008F7DF7
:100E40008093800010C084B58F7702C084B58F7DF9
:100E500084BD09C08091B0008F7703C08091B0003D
:100E60008F7D8093B000E32FF0E0EE0FFF1FEE5870
:100E7000FF4FA591B4912FB7F894662321F48C917C
:100E80009095892302C08C91892B8C932FBF089554
:100E900008951F920F920FB60F9211242F933F9334
:100EA0004F938F939F93EF93FF938091C00082FDA8
:100EB0001DC04091C6002091BF023091C0022F5F3B
:100EC0003F4F2F7330708091C1029091C20228175A
:100ED000390771F0E091BF02F091C002E158FD4F77
:100EE00040833093C0022093BF0202C08091C600AD
:100EF000FF91EF919F918F914F913F912F910F9083
:100F00000FBE0F901F901895E0911303F0911403FA
:100F1000E05CFF4F8191919120813181821B930B85
:100F20008F739070892B11F00E94480708951F92CB
:100F30000F920FB60F9211242F933F938F939F938D
:100F4000EF93FF93209103033091040380910503F5
:100F5000909106032817390731F48091C1008F7DE5
:100F60008093C10014C0E0910503F0910603ED5396
:100F7000FD4F2081809105039091060301968F73A8
:100F8000907090930603809305032093C600FF9111
:100F9000EF919F918F913F912F910F900FBE0F90E6
:100FA0001F901895AF92BF92DF92EF92FF920F932E
:100FB0001F93CF93DF93EC017A018B01DD24403046
:100FC00081EE580780E0680780E0780711F0DD24A3
:100FD000D39491E0A92EB12CEC89FD89DD2069F034
:100FE000C50108A002C0880F991F0A94E2F7808308
:100FF00060E079E08DE390E005C0108260E874E87D
:101000008EE190E0A80197010E94F210215030403B
:1010100040405040569547953795279580E12030C0
:10102000380720F0DD2011F0DD24D6CFE889F989DA
:101030003083EA89FB89208319A2EE89FF894081E8
:1010400021E030E0C9010C8C02C0880F991F0A947E
:10105000E2F7482B4083EE89FF894081C9010D8C5E
:1010600002C0880F991F0A94E2F7482B4083EE894B
:10107000FF894081C9010E8C02C0880F991F0A9414
:10108000E2F7482B4083EE89FF8980810F8C02C0F4
:10109000220F331F0A94E2F7209528232083DF9143
:1010A000CF911F910F91FF90EF90DF90BF90AF9085
:1010B0000895DC011C96ED91FC911D97E05CFF4FBB
:1010C0002191319180819181281B390B2F733070D0
:1010D000C9010895DC011C96ED91FC911D97E05C1F
:1010E000FF4F20813181E054F040DF01AE5BBF4F04
:1010F0008D919C9111972817390719F42FEF3FEF25
:1011000007C08D919C91E80FF91F8081282F30E056
:10111000C9010895DC011C96ED91FC911D97E05CDE
:10112000FF4F20813181E054F040DF01AE5BBF4FC3
:101130008D919C9111972817390719F42FEF3FEFE4
:1011400010C08D919C911197E80FF91F20818D910E
:101150009C91119701968F73907011969C938E932A
:1011600030E0C9010895DC0191968C919197882314
:1011700039F05496ED91FC915597808186FFF9CF17
:1011800091961C920895CF93DF93EC01EE85FF8535
:10119000E05CFF4F20813181E054F0402F5F3F4FF2
:1011A0002F733070DF01AE5BBF4F8D919C91119713
:1011B00028173907D1F3E05CFF4F80819181E0541B
:1011C000F040E80FF91F6083EE85FF85E05CFF4F7C
:1011D00031832083EE89FF89208181E090E00F8CAC
:1011E00002C0880F991F0A94E2F7282B208381E020
:1011F00089A3EC89FD8980818064808381E090E00F
:10120000DF91CF91089510920A031092090388EE9E
:1012100093E0A0E0B0E080930B0390930C03A093C5
:101220000D03B0930E0385E991E09093080380933A
:1012300007038FE792E0909314038093130383ECEA
:1012400092E0909316038093150385EC90E09093C1
:1012500018038093170384EC90E090931A03809313
:10126000190380EC90E090931C0380931B0381ECA6
:1012700090E090931E0380931D0382EC90E0909386
:10128000200380931F0386EC90E0909322038093C9
:10129000210384E08093230383E08093240387E089
:1012A0008093250385E08093260381E080932703C4
:1012B0000895CF93DF930E94B9060E94AC02C4E860
:1012C000D7E00E9417012097E1F30E948407F9CF2D
:1012D000CF92DF92EF92FF920F931F93CF93DF9302
:1012E0007C016B018A01C0E0D0E00FC0D6016D9196
:1012F0006D01D701ED91FC910190F081E02DC701C6
:101300000995C80FD91F015010400115110571F73B
:10131000CE01DF91CF911F910F91FF90EF90DF9061
:10132000CF900895EF92FF920F931F938C01DC01F1
:10133000ED91FC910190F081E02D6DE009957C012B
:10134000D801ED91FC910190F081E02DC8016AE097
:1013500009959C012E0D3F1DC9011F910F91FF9012
:10136000EF900895CF93DF93EC016115710519F4A7
:1013700020E030E00FC0DB010D900020E9F711976D
:10138000A61BB70BE881F9810280F381E02DAD0146
:1013900009959C01C901DF91CF9108954F925F9209
:1013A0007F928F929F92AF92BF92CF92DF92EF92F5
:1013B000FF920F931F93DF93CF93CDB7DEB7A19723
:1013C0000FB6F894DEBF0FBECDBF2C01742ECB013B
:1013D000223008F42AE019A231E2C32ED12CCC0E1F
:1013E000DD1E822E9924AA24BB24672D752FA5010A
:1013F00094010E94F21079018A01C801B701A50188
:1014000094010E94D310472D461B0894C108D108AF
:101410004A3014F4405D01C0495CF6014083E11498
:10142000F1040105110521F07E2C5F2DC801DDCFEF
:10143000C201B6010E94B209A1960FB6F894DEBFB0
:101440000FBECDBFCF91DF911F910F91FF90EF9015
:10145000DF90CF90BF90AF909F908F907F905F90E4
:101460004F900895CF92DF92EF92FF920F931F93C8
:10147000CF93DF93EC016A017B012115310541F423
:10148000E881F9810190F081E02D642F09951FC05A
:101490002A303105D1F477FF17C0E881F981019036
:1014A000F081E02D6DE209958C0144275527BA01A2
:1014B0004C195D096E097F09CE012AE00E94CE0910
:1014C0009801280F391F04C02AE00E94CE099C0110
:1014D000C901DF91CF911F910F91FF90EF90DF90A5
:1014E000CF900895EF92FF920F931F937B019A0183
:1014F0000027F7FC0095102FB801A7010E94320ABF
:101500001F910F91FF90EF900895CF92DF92EF928D
:10151000FF920F931F936C017B019A010027F7FC48
:101520000095102FB801A7010E94320A8C01C60154
:101530000E949209080F191FC8011F910F91FF9077
:10154000EF90DF90CF9008950E94B2090895EF9236
:10155000FF920F931F937C010E94B2098C01C70177
:101560000E949209080F191FC8011F910F91FF9047
:10157000EF900895AF92BF92CF92DF92EF92FF92D9
:101580000F931F93CF93DF935C016B01EE24FF2435
:10159000C0E0D0E010C0D501ED91FC910081118137
:1015A000C601BE010E94010B682FC501F801099513
:1015B000E80EF91E2196F60184819581C817D90796
:1015C00050F3C701DF91CF911F910F91FF90EF90E2
:1015D000DF90CF90BF90AF900895EF92FF920F935E
:1015E0001F937C010E94BA0A8C01C7010E949209D4
:1015F0009C01200F311FC9011F910F91FF90EF90A7
:101600000895FC01848195816817790748F4019059
:10161000F081E02D309721F0E60FF71F80810895CB
:1016200080E00895FC0180819181009729F420E0F9
:1016300030E040E050E004C00E948F009B01AC010C
:10164000B901CA010895CF93DF93FC01C081D18114
:10165000209739F409C0992787FD90950E941A11A7
:10166000899388818823B9F7DF91CF910895DC01B0
:10167000FB0114968D919C911597892B31F461157E
:101680007105A9F090E0808108C00D90BC91A02D5B
:101690006115710529F490E08C91882349F407C005
:1016A000CD010E94BF009C0190E0232B09F491E042
:1016B000892F08950F931F93CF93DF93EC018B0134
:1016C0006F5F7F4F888199810E94DB0D009711F435
:1016D00080E005C0998388831B830A8381E0DF91C2
:1016E000CF911F910F910895CF93DF93EC018881E3
:1016F0009981892B29F08A819B818617970760F44D
:10170000CE010E945A0B882341F08C819D81892B48
:1017100019F4E881F981108281E0DF91CF91089579
:10172000EF92FF920F931F93CF93DF93EC017B0116
:101730006C817D81E114F104C1F04115510599F0EE
:101740008A01060F171FB8010E94740B882369F0E5
:10175000888199812C813D81820F931FB7010E945E
:10176000C8001D830C8381E001C080E0DF91CF9130
:101770001F910F91FF90EF900895DF93CF9300D0CA
:10178000CDB7DEB769831A82BE016F5F7F4F41E03C
:1017900050E00E94900B0F900F90CF91DF91089531
:1017A000CF93DF93EC0188819981009711F00E941B
:1017B000430D198218821D821C821B821A82DF91BE
:1017C000CF910895EF92FF920F931F93CF93DF93E2
:1017D000EC017B018A01BA010E94740B882321F479
:1017E000CE010E94D00B07C01D830C838881998194
:1017F000B7010E94C800CE01DF91CF911F910F91D8
:10180000FF90EF900895CF93DF93EC011982188237
:101810001B821A821D821C821E826115710551F085
:10182000DB010D900020E9F71197A61BB70BAD0166
:101830000E94E20BDF91CF9108950F931F93182F11
:10184000092F6115710559F0DB010D900020E9F7B2
:101850001197A61BB70BAD010E94E20B02C00E94BC
:10186000D00B812F902F1F910F910895BF92CF928F
:10187000DF92EF92FF920F931F93CF93DF93082F86
:10188000B92E6B017A01E9012417350710F4EA013A
:101890007901802F9B2D68E771E00E94030CD6012F
:1018A00014968D919C9115978E159F05D0F08C17ED
:1018B0009D0708F4EC01D601ED91FC911197EC0F16
:1018C000FD1F108110826D917C916E0D7F1D802F08
:1018D0009B2D0E941D0CD601ED91FC91EC0FFD1F7C
:1018E0001083802F9B2DDF91CF911F910F91FF903F
:1018F000EF90DF90CF90BF9008950F931F938C01CE
:10190000FB01248135810E94360CC8011F910F9183
:101910000895CF93DF93EC01FB018617970761F0E1
:10192000608171816115710529F0448155810E94A2
:10193000E20B02C00E94D00BCE01DF91CF9108953F
:10194000FC01808191810E94430D08950F931F93A4
:10195000CF93DF93BC018230910510F462E070E018
:10196000E0912B03F0912C0340E050E0A0E0B0E0C8
:1019700024C08081918186179707D0F0861797073A
:1019800071F482819381109729F013969C938E9322
:1019900012972CC090932C0380932B0327C04115E2
:1019A000510519F08417950718F48D01AC01EF016A
:1019B000DF01828193819C01F9013097D1F64115B5
:1019C0005105F9F0CA01861B970B8430910580F40C
:1019D0008A819B810115110521F0F801938382838F
:1019E00004C090932C0380932B03FE01329645C0D4
:1019F000FE01E80FF91F6193719302979983888321
:101A00003CC08091290390912A03892B41F4809155
:101A10007D0190917E0190932A0380932903409148
:101A20007F01509180014115510541F44DB75EB7DA
:101A300080917B0190917C01481B590B20912903D7
:101A400030912A0324173507B0F4CA01821B930B87
:101A50008617970780F0AB014E5F5F4F841795079D
:101A600050F0420F531F50932A0340932903F9016A
:101A70006193719302C0E0E0F0E0CF01DF91CF917C
:101A80001F910F910895CF93DF939C01009709F464
:101A90008FC0EC0122971B821A8260912B037091F8
:101AA0002C036115710581F488819981820F931F40
:101AB0002091290330912A032817390739F5D0934B
:101AC0002A03C093290374C0DB0140E050E0AC1747
:101AD000BD0708F1BB83AA83FE0121913191E20F7A
:101AE000F31FAE17BF0779F48D919C911197280FC2
:101AF000391F2E5F3F4F3983288312968D919C9119
:101B000013979B838A834115510571F4D0932C035D
:101B1000C0932B034DC012968D919C911397AD01EC
:101B2000009711F0DC01D3CFDA011396DC93CE934A
:101B30001297FA0121913191E20FF31FCE17DF07BF
:101B400069F488819981280F391F2E5F3F4FFA0170
:101B5000318320838A819B8193838283E0E0F0E05C
:101B6000DB0112968D919C911397009719F0BC019F
:101B7000FD01F6CFAB014E5F5F4FDB018D919C9174
:101B8000840F951F2091290330912A0328173907C4
:101B900079F4309729F410922C0310922B0302C091
:101BA000138212824250504050932A0340932903DB
:101BB000DF91CF9108956F927F928F929F92AF9213
:101BC000BF92CF92DF92EF92FF920F931F93CF932A
:101BD000DF938C01009729F4CB010E94A60C8C01A5
:101BE000BBC08EEFE82E8FEFF82EE00EF11E4801FD
:101BF000860E971E8E149F0408F4ACC0D7014D9139
:101C00005C91119746175707B8F04530510508F415
:101C1000A3C0CA0104978617970708F49DC04250D5
:101C20005040461B570BF401419351936D937C93A5
:101C3000CF010E94430D90C05B01A41AB50A380180
:101C4000640E751EA0912B03B0912C03E0E0F0E030
:101C5000CC24DD2447C0A615B705A9F5CD91DC91AC
:101C60001197CE0102968A159B0568F1CE018A195B
:101C70009B09029612962C91129713963C91059708
:101C800058F0F40122833383CA19DB09D183C0835E
:101C9000D7016D937C9309C04E5F5F4F4C0F5D1F62
:101CA000F70151834083C901FC01C114D10431F013
:101CB000D6011396FC93EE9312974EC0F0932C032B
:101CC000E0932B0349C08D919C911197E817F90778
:101CD00008F4FC016D0112968C91129713969C9159
:101CE0009C01D901109709F0B6CF809129039091FA
:101CF0002A0386159705E9F4E617F707D0F4209133
:101D00007F01309180012115310541F42DB73EB797
:101D100080917B0190917C01281B390B82169306E0
:101D2000C8F490922A0380922903F701718360839B
:101D300013C0CB010E94A60CEC01009759F0D7010B
:101D40004D915C91B8010E94B600C8010E94430DFC
:101D50008E0102C000E010E0C801DF91CF911F9119
:101D60000F91FF90EF90DF90CF90BF90AF909F903A
:101D70008F907F906F9008955058BB27AA270ED060
:101D800071C162D130F067D120F031F49F3F11F47E
:101D90001EF457C10EF4E095E7FB4DC1E92F73D156
:101DA00080F3BA17620773078407950718F071F478
:101DB0009EF58BC10EF4E0950B2EBA2FA02D0B01D2
:101DC000B90190010C01CA01A0011124FF27591B80
:101DD00099F0593F50F4503E68F11A16F040A22F86
:101DE000232F342F4427585FF3CF469537952795F7
:101DF000A795F0405395C9F77EF41F16BA0B620BF6
:101E0000730B840BBAF09150A1F0FF0FBB1F661F3C
:101E1000771F881FC2F70EC0BA0F621F731F841F7F
:101E200048F4879577956795B795F7959E3F08F0A5
:101E3000B3CF9395880F08F09927EE0F9795879564
:101E400008950CD00FC107D140F0FED030F021F43E
:101E50005F3F19F0F0C0511139C1F3C014D198F3AC
:101E60009923C9F35523B1F3951B550BBB27AA271B
:101E700062177307840738F09F5F5F4F220F331F8D
:101E8000441FAA1FA9F333D00E2E3AF0E0E830D059
:101E900091505040E695001CCAF729D0FE2F27D05C
:101EA000660F771F881FBB1F261737074807AB072A
:101EB000B0E809F0BB0B802DBF01FF2793585F4F9F
:101EC0002AF09E3F510568F0B6C000C15F3FECF3B9
:101ED000983EDCF3869577956795B795F7959F5F64
:101EE000C9F7880F911D9695879597F90895E1E0B8
:101EF000660F771F881FBB1F621773078407BA0717
:101F000020F0621B730B840BBA0BEE1F88F7E09571
:101F1000089504D06894B111D9C00895BCD088F058
:101F20009F5790F0B92F9927B751A0F0D1F0660FC5
:101F3000771F881F991F1AF0BA95C9F712C0B130E0
:101F400081F0C3D0B1E00895C0C0672F782F8827F3
:101F5000B85F39F0B93FCCF3869577956795B3951F
:101F6000D9F73EF490958095709561957F4F8F4F8E
:101F70009F4F0895E89409C097FB3EF49095809593
:101F8000709561957F4F8F4F9F4F9923A9F0F92F3F
:101F900096E9BB279395F695879577956795B795BD
:101FA000F111F8CFFAF4BB0F11F460FF1BC06F5FA3
:101FB0007F4F8F4F9F4F16C0882311F096E911C0B5
:101FC000772321F09EE8872F762F05C0662371F0D6
:101FD00096E8862F70E060E02AF09A95660F771FEA
:101FE000881FDAF7880F9695879597F90895990FC6
:101FF0000008550FAA0BE0E8FEEF16161706E807D3
:10200000F907C0F012161306E407F50798F0621BF3
:10201000730B840B950B39F40A2661F0232B242BC8
:10202000252B21F408950A2609F4A140A6958FEFE7
:10203000811D811D089597F99F6780E870E060E039
:1020400008959FEF80EC089500240A941616170651
:1020500018060906089500240A9412161306140699
:1020600005060895092E0394000C11F4882352F0FC
:10207000BB0F40F4BF2B11F460FF04C06F5F7F4FB4
:102080008F4F9F4F089557FD9058440F551F59F09B
:102090005F3F71F04795880F97FB991F61F09F3F55
:1020A00079F087950895121613061406551FF2CF7E
:1020B0004695F1DF08C0161617061806991FF1CFCE
:1020C00086957105610508940895E894BB276627F5
:1020D0007727CB0197F908958ADF08F48FEF0895E9
:1020E0000BD0C0CFB1DF28F0B6DF18F0952309F090
:1020F000A2CFA7CF1124EACFC6DFA0F3959FD1F3DB
:10210000950F50E0551F629FF001729FBB27F00DA5
:10211000B11D639FAA27F00DB11DAA1F649F6627FA
:10212000B00DA11D661F829F2227B00DA11D621F49
:10213000739FB00DA11D621F839FA00D611D221F03
:10214000749F3327A00D611D231F849F600D211DE7
:10215000822F762F6A2F11249F5750408AF0E1F08A
:1021600088234AF0EE0FFF1FBB1F661F771F881FD3
:1021700091505040A9F79E3F510570F05CCFA6CF1B
:102180005F3FECF3983EDCF3869577956795B795BE
:10219000F795E7959F5FC1F7FE2B880F911D9695E8
:1021A000879597F90895629FD001739FF001829FF0
:1021B000E00DF11D649FE00DF11D929FF00D839FD6
:1021C000F00D749FF00D659FF00D9927729FB00D73
:1021D000E11DF91F639FB00DE11DF91FBD01CF0186
:1021E00011240895A1E21A2EAA1BBB1BFD010DC0EC
:1021F000AA1FBB1FEE1FFF1FA217B307E407F507B7
:1022000020F0A21BB30BE40BF50B661F771F881F92
:10221000991F1A9469F760957095809590959B0128
:10222000AC01BD01CF010895EE0FFF1F0590F491A1
:10223000E02D09949111089581568A5108F4805235
:102240008558089510E0C8ECD0E004C0FE010E945B
:0E22500016112296CA3CD107C9F7F894FFCFA9
:10225E00312E3000006D7367313A20004E756D627D
:10226E0065723A20002C206D73673A200052002EC2
:10227E00004900495F5365745F493A20004400529B
:10228E006573697374616E63653A2000437572728B
:10229E00656E743A20004C6F6164636F6E74726F7A
:1022AE006C6C6572004669726D7761726520566559
:1022BE007273696F6E3A2000526561647900495FEE
:1022CE007365745F523A200000C80080002D030031
:1022DE000000000000A70376032F0338034D035EB2
:1022EE000300000000C308680959088A086A08B389
:0222FE000800D6
:00000001FF
